{
  "address": "0x56e3625601Bed73ca4B96ee1C11Cf85C0d131f46",
  "abi": [
    {
      "anonymous": false,
      "inputs": [
        {
          "indexed": true,
          "internalType": "address",
          "name": "previousOwner",
          "type": "address"
        },
        {
          "indexed": true,
          "internalType": "address",
          "name": "newOwner",
          "type": "address"
        }
      ],
      "name": "OwnershipTransferred",
      "type": "event"
    },
    {
      "anonymous": false,
      "inputs": [
        {
          "indexed": true,
          "internalType": "uint32",
          "name": "requestId",
          "type": "uint32"
        },
        {
          "indexed": false,
          "internalType": "uint256",
          "name": "randomNumber",
          "type": "uint256"
        }
      ],
      "name": "RandomNumberCompleted",
      "type": "event"
    },
    {
      "anonymous": false,
      "inputs": [
        {
          "indexed": true,
          "internalType": "uint32",
          "name": "requestId",
          "type": "uint32"
        },
        {
          "indexed": true,
          "internalType": "address",
          "name": "sender",
          "type": "address"
        }
      ],
      "name": "RandomNumberRequested",
      "type": "event"
    },
    {
      "inputs": [],
      "name": "getLastRequestId",
      "outputs": [
        {
          "internalType": "uint32",
          "name": "requestId",
          "type": "uint32"
        }
      ],
      "stateMutability": "view",
      "type": "function"
    },
    {
      "inputs": [],
      "name": "getRequestFee",
      "outputs": [
        {
          "internalType": "address",
          "name": "feeToken",
          "type": "address"
        },
        {
          "internalType": "uint256",
          "name": "requestFee",
          "type": "uint256"
        }
      ],
      "stateMutability": "pure",
      "type": "function"
    },
    {
      "inputs": [
        {
          "internalType": "uint32",
          "name": "requestId",
          "type": "uint32"
        }
      ],
      "name": "isRequestComplete",
      "outputs": [
        {
          "internalType": "bool",
          "name": "isCompleted",
          "type": "bool"
        }
      ],
      "stateMutability": "view",
      "type": "function"
    },
    {
      "inputs": [],
      "name": "owner",
      "outputs": [
        {
          "internalType": "address",
          "name": "",
          "type": "address"
        }
      ],
      "stateMutability": "view",
      "type": "function"
    },
    {
      "inputs": [
        {
          "internalType": "uint32",
          "name": "requestId",
          "type": "uint32"
        }
      ],
      "name": "randomNumber",
      "outputs": [
        {
          "internalType": "uint256",
          "name": "randomNum",
          "type": "uint256"
        }
      ],
      "stateMutability": "nonpayable",
      "type": "function"
    },
    {
      "inputs": [],
      "name": "renounceOwnership",
      "outputs": [],
      "stateMutability": "nonpayable",
      "type": "function"
    },
    {
      "inputs": [],
      "name": "requestRandomNumber",
      "outputs": [
        {
          "internalType": "uint32",
          "name": "requestId",
          "type": "uint32"
        },
        {
          "internalType": "uint32",
          "name": "lockBlock",
          "type": "uint32"
        }
      ],
      "stateMutability": "nonpayable",
      "type": "function"
    },
    {
      "inputs": [
        {
          "internalType": "address",
          "name": "newOwner",
          "type": "address"
        }
      ],
      "name": "transferOwnership",
      "outputs": [],
      "stateMutability": "nonpayable",
      "type": "function"
    }
  ],
  "transactionHash": "0x07973d8f66d380c01c9a527f4739b8490dc0a93fbe2750ac8d9807a570b24771",
  "args": [],
  "numDeployments": 2,
  "solcInputHash": "de0fd1140ab5be78020e4ebafa4f909e",
  "bytecode": "0x608060405234801561001057600080fd5b5061001a3361001f565b61006f565b600080546001600160a01b038381166001600160a01b0319831681178455604051919092169283917f8be0079c531659141344cd1fd0a4f28419497f9722a3daafe3b4186f6b6457e09190a35050565b61073a8061007e6000396000f3fe608060405234801561001057600080fd5b50600436106100885760003560e01c80638678a7b21161005b5780638678a7b2146101095780638da5cb5b1461012e5780639d2a5f9814610156578063f2fde38b1461017757600080fd5b80630d37b5371461008d57806319c2b4c3146100a65780633a19b9bc146100dc578063715018a6146100ff575b600080fd5b6040805160008082526020820152015b60405180910390f35b60005474010000000000000000000000000000000000000000900463ffffffff1660405163ffffffff909116815260200161009d565b6100ef6100ea36600461064c565b61018a565b604051901515815260200161009d565b61010761019b565b005b610111610213565b6040805163ffffffff93841681529290911660208301520161009d565b60005460405173ffffffffffffffffffffffffffffffffffffffff909116815260200161009d565b61016961016436600461064c565b610292565b60405190815260200161009d565b61010761018536600461060f565b61032d565b600061019582610429565b92915050565b60005473ffffffffffffffffffffffffffffffffffffffff1633146102075760405162461bcd60e51b815260206004820181905260248201527f4f776e61626c653a2063616c6c6572206973206e6f7420746865206f776e657260448201526064015b60405180910390fd5b610211600061045c565b565b60008061021e6104d1565b63ffffffff81811660008181526002602052604080822080547fffffffffffffffffffffffffffffffffffffffffffffffffffffffff00000000164395861617905551939550919350339290917fcf635b20f2defc1e71326dc4f0b616fa676e29a5bae87da19fcaddc550b33f0391a39091565b600061029d82610429565b6102e95760405162461bcd60e51b815260206004820152601e60248201527f524e47426c6f636b5652462f726571756573742d696e636f6d706c657465000060448201526064016101fe565b63ffffffff8216600090815260016020526040902054610314576103148261030f610536565b610545565b5063ffffffff1660009081526001602052604090205490565b60005473ffffffffffffffffffffffffffffffffffffffff1633146103945760405162461bcd60e51b815260206004820181905260248201527f4f776e61626c653a2063616c6c6572206973206e6f7420746865206f776e657260448201526064016101fe565b73ffffffffffffffffffffffffffffffffffffffff811661041d5760405162461bcd60e51b815260206004820152602660248201527f4f776e61626c653a206e6577206f776e657220697320746865207a65726f206160448201527f646472657373000000000000000000000000000000000000000000000000000060648201526084016101fe565b6104268161045c565b50565b63ffffffff808216600090815260026020526040812054909161044e91166001610672565b63ffffffff16431192915050565b6000805473ffffffffffffffffffffffffffffffffffffffff8381167fffffffffffffffffffffffff0000000000000000000000000000000000000000831681178455604051919092169283917f8be0079c531659141344cd1fd0a4f28419497f9722a3daafe3b4186f6b6457e09190a35050565b6000805474010000000000000000000000000000000000000000900463ffffffff168160146104ff836106b1565b91906101000a81548163ffffffff021916908363ffffffff16021790555050600060149054906101000a900463ffffffff16905090565b600061054061059b565b905090565b63ffffffff821660008181526001602052604090819020839055517f629394f18de7accce1179c28c39be59503a57cbcf45980a2772743b041b362719061058f9084815260200190565b60405180910390a25050565b60008061019560006105ab6105f1565b6105b660014361069a565b8152604051602081818460ff7ffffffffffffffffffffffffffffffffffffffffffffffffffffffffffffffffffa6105ea57fe5b5192915050565b60405180602001604052806001906020820280368337509192915050565b60006020828403121561062157600080fd5b813573ffffffffffffffffffffffffffffffffffffffff8116811461064557600080fd5b9392505050565b60006020828403121561065e57600080fd5b813563ffffffff8116811461064557600080fd5b600063ffffffff808316818516808303821115610691576106916106d5565b01949350505050565b6000828210156106ac576106ac6106d5565b500390565b600063ffffffff808316818114156106cb576106cb6106d5565b6001019392505050565b7f4e487b7100000000000000000000000000000000000000000000000000000000600052601160045260246000fdfea264697066735822122030efca6c638c546369ed1a7dacfa0dc8e8f51745687a09764010da678075c54b64736f6c63430008060033",
  "devdoc": {
    "kind": "dev",
    "methods": {
      "getLastRequestId()": {
        "returns": {
          "requestId": "The last request id used in the last request"
        }
      },
      "getRequestFee()": {
        "returns": {
          "feeToken": "The address of the token that is used to pay fees",
          "requestFee": "The fee required to be paid to make a request"
        }
      },
      "isRequestComplete(uint32)": {
        "details": "For time-delayed requests, this function is used to check/confirm completion",
        "params": {
          "requestId": "The ID of the request used to get the results of the RNG service"
        },
        "returns": {
          "isCompleted": "True if the request has completed and a random number is available, false otherwise"
        }
      },
      "owner()": {
        "details": "Returns the address of the current owner."
      },
      "randomNumber(uint32)": {
        "params": {
          "requestId": "The ID of the request used to get the results of the RNG service"
        },
        "returns": {
          "randomNum": "The random number"
        }
      },
      "renounceOwnership()": {
        "details": "Leaves the contract without owner. It will not be possible to call `onlyOwner` functions anymore. Can only be called by the current owner. NOTE: Renouncing ownership will leave the contract without an owner, thereby removing any functionality that is only available to the owner."
      },
      "requestRandomNumber()": {
        "details": "Some services will complete the request immediately, others may have a time-delaySome services require payment in the form of a token, such as $LINK for Chainlink VRF",
        "returns": {
          "lockBlock": "The block number at which the RNG service will start generating time-delayed randomness.  The calling contract should \"lock\" all activity until the result is available via the `requestId`",
          "requestId": "The ID of the request used to get the results of the RNG service"
        }
      },
      "transferOwnership(address)": {
        "details": "Transfers ownership of the contract to a new account (`newOwner`). Can only be called by the current owner."
      }
    },
    "stateVariables": {
      "randomNumbers": {
        "details": "A list of random numbers from past requests mapped by request id"
      },
      "requestCount": {
        "details": "A counter for the number of requests made used for request ids"
      },
      "requestLockBlock": {
        "details": "A list of blocks to be locked at based on past requests mapped by request id"
      }
    },
    "version": 1
  },
  "userdoc": {
    "events": {
      "RandomNumberCompleted(uint32,uint256)": {
        "notice": "Emitted when an existing request for a random number has been completed"
      },
      "RandomNumberRequested(uint32,address)": {
        "notice": "Emitted when a new request for a random number has been submitted"
      }
    },
    "kind": "user",
    "methods": {
      "getLastRequestId()": {
        "notice": "Gets the last request id used by the RNG service"
      },
      "getRequestFee()": {
        "notice": "Gets the Fee for making a Request against an RNG service"
      },
      "isRequestComplete(uint32)": {
        "notice": "Checks if the request for randomness from the 3rd-party service has completed"
      },
      "randomNumber(uint32)": {
        "notice": "Gets the random number produced by the 3rd-party service"
      },
      "requestRandomNumber()": {
        "notice": "Sends a request for a random number to the 3rd-party service"
      }
    },
    "version": 1
  },
  "storageLayout": {
    "storage": [
      {
        "astId": 4077,
        "contract": "contracts/RNGBlockVRF.sol:RNGBlockVRF",
        "label": "_owner",
        "offset": 0,
        "slot": "0",
        "type": "t_address"
      },
      {
        "astId": 5116,
        "contract": "contracts/RNGBlockVRF.sol:RNGBlockVRF",
        "label": "requestCount",
        "offset": 20,
        "slot": "0",
        "type": "t_uint32"
      },
      {
        "astId": 5121,
        "contract": "contracts/RNGBlockVRF.sol:RNGBlockVRF",
        "label": "randomNumbers",
        "offset": 0,
        "slot": "1",
        "type": "t_mapping(t_uint32,t_uint256)"
      },
      {
        "astId": 5126,
        "contract": "contracts/RNGBlockVRF.sol:RNGBlockVRF",
        "label": "requestLockBlock",
        "offset": 0,
        "slot": "2",
        "type": "t_mapping(t_uint32,t_uint32)"
      }
    ],
    "types": {
      "t_address": {
        "encoding": "inplace",
        "label": "address",
        "numberOfBytes": "20"
      },
      "t_mapping(t_uint32,t_uint256)": {
        "encoding": "mapping",
        "key": "t_uint32",
        "label": "mapping(uint32 => uint256)",
        "numberOfBytes": "32",
        "value": "t_uint256"
      },
      "t_mapping(t_uint32,t_uint32)": {
        "encoding": "mapping",
        "key": "t_uint32",
        "label": "mapping(uint32 => uint32)",
        "numberOfBytes": "32",
        "value": "t_uint32"
      },
      "t_uint256": {
        "encoding": "inplace",
        "label": "uint256",
        "numberOfBytes": "32"
      },
      "t_uint32": {
        "encoding": "inplace",
        "label": "uint32",
        "numberOfBytes": "4"
      }
    }
  }
}